{
  "_format": "hh-sol-artifact-1",
  "contractName": "SimpleElection",
  "sourceName": "contracts/Election.sol",
  "abi": [
    {
      "inputs": [
        {
          "internalType": "string[]",
          "name": "_nda",
          "type": "string[]"
        }
      ],
      "stateMutability": "nonpayable",
      "type": "constructor"
    },
    {
      "anonymous": false,
      "inputs": [
        {
          "indexed": false,
          "internalType": "uint256",
          "name": "_candidateId",
          "type": "uint256"
        },
        {
          "indexed": false,
          "internalType": "string",
          "name": "_candidateName",
          "type": "string"
        }
      ],
      "name": "CandidateCreated",
      "type": "event"
    },
    {
      "anonymous": false,
      "inputs": [
        {
          "indexed": false,
          "internalType": "uint256[]",
          "name": "_winnerIds",
          "type": "uint256[]"
        },
        {
          "indexed": false,
          "internalType": "uint256",
          "name": "_winnerVoteCount",
          "type": "uint256"
        }
      ],
      "name": "ElectionEnded",
      "type": "event"
    },
    {
      "anonymous": false,
      "inputs": [
        {
          "indexed": true,
          "internalType": "bytes32",
          "name": "role",
          "type": "bytes32"
        },
        {
          "indexed": true,
          "internalType": "bytes32",
          "name": "previousAdminRole",
          "type": "bytes32"
        },
        {
          "indexed": true,
          "internalType": "bytes32",
          "name": "newAdminRole",
          "type": "bytes32"
        }
      ],
      "name": "RoleAdminChanged",
      "type": "event"
    },
    {
      "anonymous": false,
      "inputs": [
        {
          "indexed": true,
          "internalType": "bytes32",
          "name": "role",
          "type": "bytes32"
        },
        {
          "indexed": true,
          "internalType": "address",
          "name": "account",
          "type": "address"
        },
        {
          "indexed": true,
          "internalType": "address",
          "name": "sender",
          "type": "address"
        }
      ],
      "name": "RoleGranted",
      "type": "event"
    },
    {
      "anonymous": false,
      "inputs": [
        {
          "indexed": true,
          "internalType": "bytes32",
          "name": "role",
          "type": "bytes32"
        },
        {
          "indexed": true,
          "internalType": "address",
          "name": "account",
          "type": "address"
        },
        {
          "indexed": true,
          "internalType": "address",
          "name": "sender",
          "type": "address"
        }
      ],
      "name": "RoleRevoked",
      "type": "event"
    },
    {
      "anonymous": false,
      "inputs": [
        {
          "indexed": false,
          "internalType": "uint256",
          "name": "_candidateId",
          "type": "uint256"
        },
        {
          "indexed": false,
          "internalType": "uint256",
          "name": "_candidateVoteCount",
          "type": "uint256"
        }
      ],
      "name": "VoteForCandidate",
      "type": "event"
    },
    {
      "anonymous": false,
      "inputs": [
        {
          "indexed": false,
          "internalType": "string",
          "name": "_changed",
          "type": "string"
        }
      ],
      "name": "changedViewStatus",
      "type": "event"
    },
    {
      "inputs": [],
      "name": "CHAIR_PERSON_ROLE",
      "outputs": [
        {
          "internalType": "bytes32",
          "name": "",
          "type": "bytes32"
        }
      ],
      "stateMutability": "view",
      "type": "function"
    },
    {
      "inputs": [],
      "name": "DEFAULT_ADMIN_ROLE",
      "outputs": [
        {
          "internalType": "bytes32",
          "name": "",
          "type": "bytes32"
        }
      ],
      "stateMutability": "view",
      "type": "function"
    },
    {
      "inputs": [],
      "name": "SETUP_ROLE",
      "outputs": [
        {
          "internalType": "bytes32",
          "name": "",
          "type": "bytes32"
        }
      ],
      "stateMutability": "view",
      "type": "function"
    },
    {
      "inputs": [],
      "name": "VOTING_ROLE",
      "outputs": [
        {
          "internalType": "bytes32",
          "name": "",
          "type": "bytes32"
        }
      ],
      "stateMutability": "view",
      "type": "function"
    },
    {
      "inputs": [
        {
          "internalType": "string[]",
          "name": "_candidates",
          "type": "string[]"
        }
      ],
      "name": "_setUpElection",
      "outputs": [],
      "stateMutability": "nonpayable",
      "type": "function"
    },
    {
      "inputs": [
        {
          "internalType": "address",
          "name": "_newAdmin",
          "type": "address"
        }
      ],
      "name": "addChairPerson",
      "outputs": [],
      "stateMutability": "nonpayable",
      "type": "function"
    },
    {
      "inputs": [
        {
          "internalType": "string",
          "name": "_role",
          "type": "string"
        }
      ],
      "name": "addStakeHolder",
      "outputs": [],
      "stateMutability": "nonpayable",
      "type": "function"
    },
    {
      "inputs": [],
      "name": "adminCount",
      "outputs": [
        {
          "internalType": "uint256",
          "name": "",
          "type": "uint256"
        }
      ],
      "stateMutability": "view",
      "type": "function"
    },
    {
      "inputs": [
        {
          "internalType": "uint256",
          "name": "",
          "type": "uint256"
        }
      ],
      "name": "candidates",
      "outputs": [
        {
          "internalType": "uint256",
          "name": "id",
          "type": "uint256"
        },
        {
          "internalType": "string",
          "name": "name",
          "type": "string"
        },
        {
          "internalType": "uint256",
          "name": "voteCount",
          "type": "uint256"
        }
      ],
      "stateMutability": "view",
      "type": "function"
    },
    {
      "inputs": [],
      "name": "candidatesCount",
      "outputs": [
        {
          "internalType": "uint256",
          "name": "",
          "type": "uint256"
        }
      ],
      "stateMutability": "view",
      "type": "function"
    },
    {
      "inputs": [],
      "name": "changeViewStatus",
      "outputs": [],
      "stateMutability": "nonpayable",
      "type": "function"
    },
    {
      "inputs": [],
      "name": "description",
      "outputs": [
        {
          "internalType": "string",
          "name": "",
          "type": "string"
        }
      ],
      "stateMutability": "view",
      "type": "function"
    },
    {
      "inputs": [],
      "name": "displayResult",
      "outputs": [
        {
          "internalType": "uint256",
          "name": "",
          "type": "uint256"
        }
      ],
      "stateMutability": "view",
      "type": "function"
    },
    {
      "inputs": [],
      "name": "endElection",
      "outputs": [],
      "stateMutability": "nonpayable",
      "type": "function"
    },
    {
      "inputs": [
        {
          "internalType": "bytes32",
          "name": "role",
          "type": "bytes32"
        }
      ],
      "name": "getRoleAdmin",
      "outputs": [
        {
          "internalType": "bytes32",
          "name": "",
          "type": "bytes32"
        }
      ],
      "stateMutability": "view",
      "type": "function"
    },
    {
      "inputs": [
        {
          "internalType": "bytes32",
          "name": "role",
          "type": "bytes32"
        },
        {
          "internalType": "address",
          "name": "account",
          "type": "address"
        }
      ],
      "name": "grantRole",
      "outputs": [],
      "stateMutability": "nonpayable",
      "type": "function"
    },
    {
      "inputs": [
        {
          "internalType": "bytes32",
          "name": "role",
          "type": "bytes32"
        },
        {
          "internalType": "address",
          "name": "account",
          "type": "address"
        }
      ],
      "name": "hasRole",
      "outputs": [
        {
          "internalType": "bool",
          "name": "",
          "type": "bool"
        }
      ],
      "stateMutability": "view",
      "type": "function"
    },
    {
      "inputs": [],
      "name": "isActive",
      "outputs": [
        {
          "internalType": "bool",
          "name": "",
          "type": "bool"
        }
      ],
      "stateMutability": "view",
      "type": "function"
    },
    {
      "inputs": [],
      "name": "isEnded",
      "outputs": [
        {
          "internalType": "bool",
          "name": "",
          "type": "bool"
        }
      ],
      "stateMutability": "view",
      "type": "function"
    },
    {
      "inputs": [],
      "name": "name",
      "outputs": [
        {
          "internalType": "string",
          "name": "",
          "type": "string"
        }
      ],
      "stateMutability": "view",
      "type": "function"
    },
    {
      "inputs": [
        {
          "internalType": "bytes32",
          "name": "role",
          "type": "bytes32"
        },
        {
          "internalType": "address",
          "name": "account",
          "type": "address"
        }
      ],
      "name": "renounceRole",
      "outputs": [],
      "stateMutability": "nonpayable",
      "type": "function"
    },
    {
      "inputs": [],
      "name": "retrieveVotes",
      "outputs": [
        {
          "components": [
            {
              "internalType": "uint256",
              "name": "id",
              "type": "uint256"
            },
            {
              "internalType": "string",
              "name": "name",
              "type": "string"
            },
            {
              "internalType": "uint256",
              "name": "voteCount",
              "type": "uint256"
            }
          ],
          "internalType": "struct SimpleElection.Candidate[]",
          "name": "",
          "type": "tuple[]"
        }
      ],
      "stateMutability": "view",
      "type": "function"
    },
    {
      "inputs": [
        {
          "internalType": "bytes32",
          "name": "role",
          "type": "bytes32"
        },
        {
          "internalType": "address",
          "name": "account",
          "type": "address"
        }
      ],
      "name": "revokeRole",
      "outputs": [],
      "stateMutability": "nonpayable",
      "type": "function"
    },
    {
      "inputs": [
        {
          "internalType": "uint256",
          "name": "",
          "type": "uint256"
        }
      ],
      "name": "stakeHolders",
      "outputs": [
        {
          "internalType": "address",
          "name": "stakeHolderAddress",
          "type": "address"
        },
        {
          "internalType": "string",
          "name": "role",
          "type": "string"
        }
      ],
      "stateMutability": "view",
      "type": "function"
    },
    {
      "inputs": [],
      "name": "stakeHoldersCount",
      "outputs": [
        {
          "internalType": "uint256",
          "name": "",
          "type": "uint256"
        }
      ],
      "stateMutability": "view",
      "type": "function"
    },
    {
      "inputs": [],
      "name": "startElection",
      "outputs": [],
      "stateMutability": "nonpayable",
      "type": "function"
    },
    {
      "inputs": [
        {
          "internalType": "bytes4",
          "name": "interfaceId",
          "type": "bytes4"
        }
      ],
      "name": "supportsInterface",
      "outputs": [
        {
          "internalType": "bool",
          "name": "",
          "type": "bool"
        }
      ],
      "stateMutability": "view",
      "type": "function"
    },
    {
      "inputs": [
        {
          "internalType": "uint256",
          "name": "_candidateId",
          "type": "uint256"
        }
      ],
      "name": "vote",
      "outputs": [],
      "stateMutability": "nonpayable",
      "type": "function"
    },
    {
      "inputs": [
        {
          "internalType": "address",
          "name": "",
          "type": "address"
        }
      ],
      "name": "voters",
      "outputs": [
        {
          "internalType": "bool",
          "name": "",
          "type": "bool"
        }
      ],
      "stateMutability": "view",
      "type": "function"
    },
    {
      "inputs": [
        {
          "internalType": "uint256",
          "name": "",
          "type": "uint256"
        }
      ],
      "name": "winnerIds",
      "outputs": [
        {
          "internalType": "uint256",
          "name": "",
          "type": "uint256"
        }
      ],
      "stateMutability": "view",
      "type": "function"
    },
    {
      "inputs": [],
      "name": "winnerVoteCount",
      "outputs": [
        {
          "internalType": "uint256",
          "name": "",
          "type": "uint256"
        }
      ],
      "stateMutability": "view",
      "type": "function"
    }
  ],
  "bytecode": "0x60806040526000600360006101000a81548160ff0219169083151502179055506000600360016101000a81548160ff0219169083151502179055506040518060400160405280600781526020017f70726976617465000000000000000000000000000000000000000000000000008152506004908051906020019062000087929190620003be565b50600060075560006008556000600955348015620000a457600080fd5b5060405162003b5038038062003b508339818101604052810190620000ca91906200059d565b8060008151811062000105577f4e487b7100000000000000000000000000000000000000000000000000000000600052603260045260246000fd5b60200260200101516001908051906020019062000124929190620003be565b508060018151811062000160577f4e487b7100000000000000000000000000000000000000000000000000000000600052603260045260246000fd5b6020026020010151600290805190602001906200017f929190620003be565b506200019133620001a960201b60201c565b620001a233620001de60201b60201c565b5062000781565b620001db7fe30bea836627a3788b881fc6b480f5a9a0c225fb6f83d77f346323c2c248b065826200024560201b60201c565b50565b620002107f1153057e7a3c8d42df44caa2902d90737a048ee746d653a72beb49a4213bf38b826200024560201b60201c565b620002427fa0cc82bfc6a0e1fd4746daa2c96f2cbac6feca4912d2b7f78808a14ff40807db826200024560201b60201c565b50565b6200025782826200025b60201b60201c565b5050565b6200026d82826200034c60201b60201c565b6200034857600160008084815260200190815260200160002060000160008373ffffffffffffffffffffffffffffffffffffffff1673ffffffffffffffffffffffffffffffffffffffff16815260200190815260200160002060006101000a81548160ff021916908315150217905550620002ed620003b660201b60201c565b73ffffffffffffffffffffffffffffffffffffffff168173ffffffffffffffffffffffffffffffffffffffff16837f2f8788117e7eff1d82e926ec794901d17c78024a50270940304540a733656f0d60405160405180910390a45b5050565b600080600084815260200190815260200160002060000160008373ffffffffffffffffffffffffffffffffffffffff1673ffffffffffffffffffffffffffffffffffffffff16815260200190815260200160002060009054906101000a900460ff16905092915050565b600033905090565b828054620003cc90620006a6565b90600052602060002090601f016020900481019282620003f057600085556200043c565b82601f106200040b57805160ff19168380011785556200043c565b828001600101855582156200043c579182015b828111156200043b5782518255916020019190600101906200041e565b5b5090506200044b91906200044f565b5090565b5b808211156200046a57600081600090555060010162000450565b5090565b6000620004856200047f846200060b565b620005e2565b90508083825260208201905082856020860282011115620004a557600080fd5b60005b85811015620004f457815167ffffffffffffffff811115620004c957600080fd5b808601620004d8898262000570565b85526020850194506020840193505050600181019050620004a8565b5050509392505050565b6000620005156200050f846200063a565b620005e2565b9050828152602081018484840111156200052e57600080fd5b6200053b84828562000670565b509392505050565b600082601f8301126200055557600080fd5b8151620005678482602086016200046e565b91505092915050565b600082601f8301126200058257600080fd5b815162000594848260208601620004fe565b91505092915050565b600060208284031215620005b057600080fd5b600082015167ffffffffffffffff811115620005cb57600080fd5b620005d98482850162000543565b91505092915050565b6000620005ee62000601565b9050620005fc8282620006dc565b919050565b6000604051905090565b600067ffffffffffffffff82111562000629576200062862000741565b5b602082029050602081019050919050565b600067ffffffffffffffff82111562000658576200065762000741565b5b620006638262000770565b9050602081019050919050565b60005b838110156200069057808201518184015260208101905062000673565b83811115620006a0576000848401525b50505050565b60006002820490506001821680620006bf57607f821691505b60208210811415620006d657620006d562000712565b5b50919050565b620006e78262000770565b810181811067ffffffffffffffff8211171562000709576200070862000741565b5b80604052505050565b7f4e487b7100000000000000000000000000000000000000000000000000000000600052602260045260246000fd5b7f4e487b7100000000000000000000000000000000000000000000000000000000600052604160045260246000fd5b6000601f19601f8301169050919050565b6133bf80620007916000396000f3fe608060405234801561001057600080fd5b50600436106101e55760003560e01c8063403d13121161010f5780639f8d9302116100a2578063acad41a411610071578063acad41a41461053c578063c90aa2b41461056d578063d547741f1461058b578063f97381c8146105a7576101e5565b80639f8d9302146104b2578063a217fddf146104d0578063a3ec138d146104ee578063a4fd6f561461051e576101e5565b80637284e416116100de5780637284e4161461043e5780638070e50f1461045c5780639196b9071461047857806391d1485414610482576101e5565b8063403d1312146103dc57806359f784681461040c57806362d73eb814610416578063648bcae214610420576101e5565b8063248a9ca3116101875780632f2ff15d116101565780632f2ff15d146103565780633477ee2e1461037257806336568abe146103a45780633f5ecd6a146103c0576101e5565b8063248a9ca3146102cc5780632b7832b3146102fc5780632d35a8a21461031a5780632f22850d14610338576101e5565b806306fdde03116101c357806306fdde031461025457806312a70f0b14610272578063226373011461029057806322f3e2d4146102ae576101e5565b80630121b93f146101ea57806301ffc9a714610206578063031e500414610236575b600080fd5b61020460048036038101906101ff9190612256565b6105c3565b005b610220600480360381019061021b91906121ec565b61066f565b60405161022d91906128be565b60405180910390f35b61023e6106e9565b60405161024b919061286c565b60405180910390f35b61025c6108a1565b60405161026991906128f4565b60405180910390f35b61027a61092f565b60405161028791906128d9565b60405180910390f35b610298610953565b6040516102a591906128d9565b60405180910390f35b6102b6610977565b6040516102c391906128be565b60405180910390f35b6102e660048036038101906102e19190612187565b61098a565b6040516102f391906128d9565b60405180910390f35b6103046109a9565b6040516103119190612a96565b60405180910390f35b6103226109af565b60405161032f9190612a96565b60405180910390f35b6103406109b5565b60405161034d9190612a96565b60405180910390f35b610370600480360381019061036b91906121b0565b6109bb565b005b61038c60048036038101906103879190612256565b6109e4565b60405161039b93929190612ae1565b60405180910390f35b6103be60048036038101906103b991906121b0565b610a96565b005b6103da60048036038101906103d5919061211d565b610b19565b005b6103f660048036038101906103f19190612256565b610b90565b6040516104039190612a96565b60405180910390f35b610414610bb4565b005b61041e610c61565b005b610428610cc8565b6040516104359190612a96565b60405180910390f35b610446610d5f565b60405161045391906128f4565b60405180910390f35b61047660048036038101906104719190612146565b610ded565b005b610480610ee7565b005b61049c600480360381019061049791906121b0565b610fb4565b6040516104a991906128be565b60405180910390f35b6104ba61101e565b6040516104c791906128d9565b60405180910390f35b6104d8611042565b6040516104e591906128d9565b60405180910390f35b6105086004803603810190610503919061211d565b611049565b60405161051591906128be565b60405180910390f35b610526611069565b60405161053391906128be565b60405180910390f35b61055660048036038101906105519190612256565b61107c565b60405161056492919061283c565b60405180910390f35b610575611148565b6040516105829190612a96565b60405180910390f35b6105a560048036038101906105a091906121b0565b61114e565b005b6105c160048036038101906105bc9190612215565b611177565b005b600360019054906101000a900460ff1615610613576040517f08c379a000000000000000000000000000000000000000000000000000000000815260040161060a90612996565b60405180910390fd5b600360009054906101000a900460ff16610662576040517f08c379a0000000000000000000000000000000000000000000000000000000008152600401610659906129b6565b60405180910390fd5b61066c81336113d2565b50565b60007f7965db0b000000000000000000000000000000000000000000000000000000007bffffffffffffffffffffffffffffffffffffffffffffffffffffffff1916827bffffffffffffffffffffffffffffffffffffffffffffffffffffffff191614806106e257506106e1826115d3565b5b9050919050565b6060600060075467ffffffffffffffff81111561072f577f4e487b7100000000000000000000000000000000000000000000000000000000600052604160045260246000fd5b60405190808252806020026020018201604052801561076857816020015b610755611ecc565b81526020019060019003908161074d5790505b50905060005b600754811015610899576000600a6000838152602001908152602001600020905080604051806060016040529081600082015481526020016001820180546107b590612e32565b80601f01602080910402602001604051908101604052809291908181526020018280546107e190612e32565b801561082e5780601f106108035761010080835404028352916020019161082e565b820191906000526020600020905b81548152906001019060200180831161081157829003601f168201915b5050505050815260200160028201548152505083838151811061087a577f4e487b7100000000000000000000000000000000000000000000000000000000600052603260045260246000fd5b602002602001018190525050808061089190612eaf565b91505061076e565b508091505090565b600180546108ae90612e32565b80601f01602080910402602001604051908101604052809291908181526020018280546108da90612e32565b80156109275780601f106108fc57610100808354040283529160200191610927565b820191906000526020600020905b81548152906001019060200180831161090a57829003601f168201915b505050505081565b7fa0cc82bfc6a0e1fd4746daa2c96f2cbac6feca4912d2b7f78808a14ff40807db81565b7f1153057e7a3c8d42df44caa2902d90737a048ee746d653a72beb49a4213bf38b81565b600360009054906101000a900460ff1681565b6000806000838152602001908152602001600020600101549050919050565b60085481565b60075481565b600b5481565b6109c48261098a565b6109d5816109d061163d565b611645565b6109df83836116e2565b505050565b600a602052806000526040600020600091509050806000015490806001018054610a0d90612e32565b80601f0160208091040260200160405190810160405280929190818152602001828054610a3990612e32565b8015610a865780601f10610a5b57610100808354040283529160200191610a86565b820191906000526020600020905b815481529060010190602001808311610a6957829003601f168201915b5050505050908060020154905083565b610a9e61163d565b73ffffffffffffffffffffffffffffffffffffffff168173ffffffffffffffffffffffffffffffffffffffff1614610b0b576040517f08c379a0000000000000000000000000000000000000000000000000000000008152600401610b0290612a76565b60405180910390fd5b610b1582826117c2565b5050565b33610b23816118a3565b610b62576040517f08c379a0000000000000000000000000000000000000000000000000000000008152600401610b5990612a56565b60405180910390fd5b610b8c7fe30bea836627a3788b881fc6b480f5a9a0c225fb6f83d77f346323c2c248b065836109bb565b5050565b600c8181548110610ba057600080fd5b906000526020600020016000915090505481565b33610bbe816118a3565b610bfd576040517f08c379a0000000000000000000000000000000000000000000000000000000008152600401610bf490612a56565b60405180910390fd5b6001600360016101000a81548160ff021916908315150217905550610c206118d6565b50507f38d8ebbbb4803f034f19b4cf2f19bfb84cc5dea177696c1f80a19357d5602e04600c600b54604051610c5692919061288e565b60405180910390a150565b33610c6b816118a3565b610caa576040517f08c379a0000000000000000000000000000000000000000000000000000000008152600401610ca190612a56565b60405180910390fd5b6001600360006101000a81548160ff02191690831515021790555050565b6000604051602001610cd9906127d8565b604051602081830303815290604052805190602001206004604051602001610d0191906127ac565b6040516020818303038152906040528051906020012014610d57576040517f08c379a0000000000000000000000000000000000000000000000000000000008152600401610d4e90612936565b60405180910390fd5b600b54905090565b60028054610d6c90612e32565b80601f0160208091040260200160405190810160405280929190818152602001828054610d9890612e32565b8015610de55780601f10610dba57610100808354040283529160200191610de5565b820191906000526020600020905b815481529060010190602001808311610dc857829003601f168201915b505050505081565b33610df781611a4a565b610e36576040517f08c379a0000000000000000000000000000000000000000000000000000000008152600401610e2d90612956565b60405180910390fd5b6000825111610e7a576040517f08c379a0000000000000000000000000000000000000000000000000000000008152600401610e7190612976565b60405180910390fd5b60005b8251811015610ee257610ecf838281518110610ec2577f4e487b7100000000000000000000000000000000000000000000000000000000600052603260045260246000fd5b6020026020010151611a7d565b8080610eda90612eaf565b915050610e7d565b505050565b33610ef181611a4a565b610f30576040517f08c379a0000000000000000000000000000000000000000000000000000000008152600401610f2790612956565b60405180910390fd5b6040518060400160405280600681526020017f7075626c6963000000000000000000000000000000000000000000000000000081525060049080519060200190610f7b929190611eed565b507ff333e2841e7080e697cd453c20436774b54a41376ac7ffa593cf4d2981d42c4d604051610fa990612a16565b60405180910390a150565b600080600084815260200190815260200160002060000160008373ffffffffffffffffffffffffffffffffffffffff1673ffffffffffffffffffffffffffffffffffffffff16815260200190815260200160002060009054906101000a900460ff16905092915050565b7fe30bea836627a3788b881fc6b480f5a9a0c225fb6f83d77f346323c2c248b06581565b6000801b81565b60066020528060005260406000206000915054906101000a900460ff1681565b600360019054906101000a900460ff1681565b60056020528060005260406000206000915090508060000160009054906101000a900473ffffffffffffffffffffffffffffffffffffffff16908060010180546110c590612e32565b80601f01602080910402602001604051908101604052809291908181526020018280546110f190612e32565b801561113e5780601f106111135761010080835404028352916020019161113e565b820191906000526020600020905b81548152906001019060200180831161112157829003601f168201915b5050505050905082565b60095481565b6111578261098a565b6111688161116361163d565b611645565b61117283836117c2565b505050565b604051602001611186906127ed565b60405160208183030381529060405280519060200120816040516020016111ad9190612795565b60405160208183030381529060405280519060200120148061121857506040516020016111d9906127c3565b60405160208183030381529060405280519060200120816040516020016112009190612795565b60405160208183030381529060405280519060200120145b156112e65761122633611b3a565b60405180604001604052803373ffffffffffffffffffffffffffffffffffffffff1681526020018281525060056000600954815260200190815260200160002060008201518160000160006101000a81548173ffffffffffffffffffffffffffffffffffffffff021916908373ffffffffffffffffffffffffffffffffffffffff16021790555060208201518160010190805190602001906112c9929190611eed565b50905050600960008154809291906112e090612eaf565b91905055505b6113107fa0cc82bfc6a0e1fd4746daa2c96f2cbac6feca4912d2b7f78808a14ff40807db33611b91565b60405180604001604052803373ffffffffffffffffffffffffffffffffffffffff1681526020018281525060056000600954815260200190815260200160002060008201518160000160006101000a81548173ffffffffffffffffffffffffffffffffffffffff021916908373ffffffffffffffffffffffffffffffffffffffff16021790555060208201518160010190805190602001906113b3929190611eed565b50905050600960008154809291906113ca90612eaf565b919050555050565b81600754811080156113e5575060008110155b611424576040517f08c379a000000000000000000000000000000000000000000000000000000000815260040161141b906129d6565b60405180910390fd5b8161142e81611b9f565b61146d576040517f08c379a0000000000000000000000000000000000000000000000000000000008152600401611464906129f6565b60405180910390fd5b600660008473ffffffffffffffffffffffffffffffffffffffff1673ffffffffffffffffffffffffffffffffffffffff16815260200190815260200160002060009054906101000a900460ff16156114fa576040517f08c379a00000000000000000000000000000000000000000000000000000000081526004016114f190612a36565b60405180910390fd5b6001600660008573ffffffffffffffffffffffffffffffffffffffff1673ffffffffffffffffffffffffffffffffffffffff16815260200190815260200160002060006101000a81548160ff021916908315150217905550600a6000858152602001908152602001600020600201600081548092919061157990612eaf565b91905055507fd3ebd88818d034d26c5d98bcef9c7c45207130238e76e8cf0b3ba00e906851bf84600a6000878152602001908152602001600020600201546040516115c5929190612b1f565b60405180910390a150505050565b60007f01ffc9a7000000000000000000000000000000000000000000000000000000007bffffffffffffffffffffffffffffffffffffffffffffffffffffffff1916827bffffffffffffffffffffffffffffffffffffffffffffffffffffffff1916149050919050565b600033905090565b61164f8282610fb4565b6116de576116748173ffffffffffffffffffffffffffffffffffffffff166014611bd2565b6116828360001c6020611bd2565b604051602001611693929190612802565b6040516020818303038152906040526040517f08c379a00000000000000000000000000000000000000000000000000000000081526004016116d591906128f4565b60405180910390fd5b5050565b6116ec8282610fb4565b6117be57600160008084815260200190815260200160002060000160008373ffffffffffffffffffffffffffffffffffffffff1673ffffffffffffffffffffffffffffffffffffffff16815260200190815260200160002060006101000a81548160ff02191690831515021790555061176361163d565b73ffffffffffffffffffffffffffffffffffffffff168173ffffffffffffffffffffffffffffffffffffffff16837f2f8788117e7eff1d82e926ec794901d17c78024a50270940304540a733656f0d60405160405180910390a45b5050565b6117cc8282610fb4565b1561189f57600080600084815260200190815260200160002060000160008373ffffffffffffffffffffffffffffffffffffffff1673ffffffffffffffffffffffffffffffffffffffff16815260200190815260200160002060006101000a81548160ff02191690831515021790555061184461163d565b73ffffffffffffffffffffffffffffffffffffffff168173ffffffffffffffffffffffffffffffffffffffff16837ff6391f5c32d9c69d2a47ea670b442974b53935d1edc7fd64eb21e047a839171b60405160405180910390a45b5050565b60006118cf7fe30bea836627a3788b881fc6b480f5a9a0c225fb6f83d77f346323c2c248b06583610fb4565b9050919050565b6000606060005b6007548110156119ea57600b54600a600083815260200190815260200160002060020154111561197657600a600082815260200190815260200160002060020154600b81905550600c60006119329190611f73565b600c600a60008381526020019081526020016000206000015490806001815401808255809150506001900390600052602060002001600090919091909150556119d7565b600b54600a60008381526020019081526020016000206002015414156119d657600c600a60008381526020019081526020016000206000015490806001815401808255809150506001900390600052602060002001600090919091909150555b5b80806119e290612eaf565b9150506118dd565b50600b54600c80805480602002602001604051908101604052809291908181526020018280548015611a3b57602002820191906000526020600020905b815481526020019060010190808311611a27575b50505050509050915091509091565b6000611a767f1153057e7a3c8d42df44caa2902d90737a048ee746d653a72beb49a4213bf38b83610fb4565b9050919050565b604051806060016040528060075481526020018281526020016000815250600a60006007548152602001908152602001600020600082015181600001556020820151816001019080519060200190611ad6929190611eed565b50604082015181600201559050507f78d27a3c512303f604b46bc28acc0ca45abe6420172a017c5a6dc585821eb63960075482604051611b17929190612ab1565b60405180910390a160076000815480929190611b3290612eaf565b919050555050565b611b647f1153057e7a3c8d42df44caa2902d90737a048ee746d653a72beb49a4213bf38b82611b91565b611b8e7fa0cc82bfc6a0e1fd4746daa2c96f2cbac6feca4912d2b7f78808a14ff40807db82611b91565b50565b611b9b82826116e2565b5050565b6000611bcb7fa0cc82bfc6a0e1fd4746daa2c96f2cbac6feca4912d2b7f78808a14ff40807db83610fb4565b9050919050565b606060006002836002611be59190612ce4565b611bef9190612c8e565b67ffffffffffffffff811115611c2e577f4e487b7100000000000000000000000000000000000000000000000000000000600052604160045260246000fd5b6040519080825280601f01601f191660200182016040528015611c605781602001600182028036833780820191505090505b5090507f300000000000000000000000000000000000000000000000000000000000000081600081518110611cbe577f4e487b7100000000000000000000000000000000000000000000000000000000600052603260045260246000fd5b60200101907effffffffffffffffffffffffffffffffffffffffffffffffffffffffffffff1916908160001a9053507f780000000000000000000000000000000000000000000000000000000000000081600181518110611d48577f4e487b7100000000000000000000000000000000000000000000000000000000600052603260045260246000fd5b60200101907effffffffffffffffffffffffffffffffffffffffffffffffffffffffffffff1916908160001a90535060006001846002611d889190612ce4565b611d929190612c8e565b90505b6001811115611e7e577f3031323334353637383961626364656600000000000000000000000000000000600f861660108110611dfa577f4e487b7100000000000000000000000000000000000000000000000000000000600052603260045260246000fd5b1a60f81b828281518110611e37577f4e487b7100000000000000000000000000000000000000000000000000000000600052603260045260246000fd5b60200101907effffffffffffffffffffffffffffffffffffffffffffffffffffffffffffff1916908160001a905350600485901c945080611e7790612e08565b9050611d95565b5060008414611ec2576040517f08c379a0000000000000000000000000000000000000000000000000000000008152600401611eb990612916565b60405180910390fd5b8091505092915050565b60405180606001604052806000815260200160608152602001600081525090565b828054611ef990612e32565b90600052602060002090601f016020900481019282611f1b5760008555611f62565b82601f10611f3457805160ff1916838001178555611f62565b82800160010185558215611f62579182015b82811115611f61578251825591602001919060010190611f46565b5b509050611f6f9190611f94565b5090565b5080546000825590600052602060002090810190611f919190611f94565b50565b5b80821115611fad576000816000905550600101611f95565b5090565b6000611fc4611fbf84612b6d565b612b48565b90508083825260208201905082856020860282011115611fe357600080fd5b60005b8581101561202d57813567ffffffffffffffff81111561200557600080fd5b80860161201289826120de565b85526020850194506020840193505050600181019050611fe6565b5050509392505050565b600061204a61204584612b99565b612b48565b90508281526020810184848401111561206257600080fd5b61206d848285612dc6565b509392505050565b6000813590506120848161332d565b92915050565b600082601f83011261209b57600080fd5b81356120ab848260208601611fb1565b91505092915050565b6000813590506120c381613344565b92915050565b6000813590506120d88161335b565b92915050565b600082601f8301126120ef57600080fd5b81356120ff848260208601612037565b91505092915050565b60008135905061211781613372565b92915050565b60006020828403121561212f57600080fd5b600061213d84828501612075565b91505092915050565b60006020828403121561215857600080fd5b600082013567ffffffffffffffff81111561217257600080fd5b61217e8482850161208a565b91505092915050565b60006020828403121561219957600080fd5b60006121a7848285016120b4565b91505092915050565b600080604083850312156121c357600080fd5b60006121d1858286016120b4565b92505060206121e285828601612075565b9150509250929050565b6000602082840312156121fe57600080fd5b600061220c848285016120c9565b91505092915050565b60006020828403121561222757600080fd5b600082013567ffffffffffffffff81111561224157600080fd5b61224d848285016120de565b91505092915050565b60006020828403121561226857600080fd5b600061227684828501612108565b91505092915050565b600061228b8383612727565b905092915050565b600061229f8383612777565b60208301905092915050565b6122b481612d48565b82525050565b60006122c582612c04565b6122cf8185612c3f565b9350836020820285016122e185612bca565b8060005b8581101561231d57848403895281516122fe858261227f565b945061230983612c25565b925060208a019950506001810190506122e5565b50829750879550505050505092915050565b600061233a82612c0f565b6123448185612c50565b935061234f83612bda565b8060005b838110156123875761236482612f85565b61236e8882612293565b975061237983612c32565b925050600181019050612353565b5085935050505092915050565b61239d81612d5a565b82525050565b6123ac81612d66565b82525050565b60006123bd82612c1a565b6123c78185612c61565b93506123d7818560208601612dd5565b6123e081612f98565b840191505092915050565b60006123f682612c1a565b6124008185612c72565b9350612410818560208601612dd5565b61241981612f98565b840191505092915050565b600061242f82612c1a565b6124398185612c83565b9350612449818560208601612dd5565b80840191505092915050565b6000815461246281612e32565b61246c8186612c83565b945060018216600081146124875760018114612498576124cb565b60ff198316865281860193506124cb565b6124a185612bef565b60005b838110156124c3578154818901526001820191506020810190506124a4565b838801955050505b50505092915050565b60006124e1602083612c72565b91506124ec82612fb6565b602082019050919050565b6000612504603383612c72565b915061250f82612fdf565b604082019050919050565b6000612527600883612c83565b91506125328261302e565b600882019050919050565b600061254a603083612c72565b915061255582613057565b604082019050919050565b600061256d602583612c72565b9150612578826130a6565b604082019050919050565b6000612590601383612c72565b915061259b826130f5565b602082019050919050565b60006125b3600683612c83565b91506125be8261311e565b600682019050919050565b60006125d6601783612c72565b91506125e182613147565b602082019050919050565b60006125f9600783612c83565b915061260482613170565b600782019050919050565b600061261c601a83612c72565b915061262782613199565b602082019050919050565b600061263f601b83612c72565b915061264a826131c2565b602082019050919050565b6000612662601983612c72565b915061266d826131eb565b602082019050919050565b6000612685601883612c72565b915061269082613214565b602082019050919050565b60006126a8601783612c83565b91506126b38261323d565b601782019050919050565b60006126cb602183612c72565b91506126d682613266565b604082019050919050565b60006126ee601183612c83565b91506126f9826132b5565b601182019050919050565b6000612711602f83612c72565b915061271c826132de565b604082019050919050565b600060608301600083015161273f6000860182612777565b506020830151848203602086015261275782826123b2565b915050604083015161276c6040860182612777565b508091505092915050565b61278081612dbc565b82525050565b61278f81612dbc565b82525050565b60006127a18284612424565b915081905092915050565b60006127b88284612455565b915081905092915050565b60006127ce8261251a565b9150819050919050565b60006127e3826125a6565b9150819050919050565b60006127f8826125ec565b9150819050919050565b600061280d8261269b565b91506128198285612424565b9150612824826126e1565b91506128308284612424565b91508190509392505050565b600060408201905061285160008301856122ab565b818103602083015261286381846123eb565b90509392505050565b6000602082019050818103600083015261288681846122ba565b905092915050565b600060408201905081810360008301526128a8818561232f565b90506128b76020830184612786565b9392505050565b60006020820190506128d36000830184612394565b92915050565b60006020820190506128ee60008301846123a3565b92915050565b6000602082019050818103600083015261290e81846123eb565b905092915050565b6000602082019050818103600083015261292f816124d4565b9050919050565b6000602082019050818103600083015261294f816124f7565b9050919050565b6000602082019050818103600083015261296f8161253d565b9050919050565b6000602082019050818103600083015261298f81612560565b9050919050565b600060208201905081810360008301526129af81612583565b9050919050565b600060208201905081810360008301526129cf816125c9565b9050919050565b600060208201905081810360008301526129ef8161260f565b9050919050565b60006020820190508181036000830152612a0f81612632565b9050919050565b60006020820190508181036000830152612a2f81612655565b9050919050565b60006020820190508181036000830152612a4f81612678565b9050919050565b60006020820190508181036000830152612a6f816126be565b9050919050565b60006020820190508181036000830152612a8f81612704565b9050919050565b6000602082019050612aab6000830184612786565b92915050565b6000604082019050612ac66000830185612786565b8181036020830152612ad881846123eb565b90509392505050565b6000606082019050612af66000830186612786565b8181036020830152612b0881856123eb565b9050612b176040830184612786565b949350505050565b6000604082019050612b346000830185612786565b612b416020830184612786565b9392505050565b6000612b52612b63565b9050612b5e8282612e7e565b919050565b6000604051905090565b600067ffffffffffffffff821115612b8857612b87612f56565b5b602082029050602081019050919050565b600067ffffffffffffffff821115612bb457612bb3612f56565b5b612bbd82612f98565b9050602081019050919050565b6000819050602082019050919050565b60008190508160005260206000209050919050565b60008190508160005260206000209050919050565b600081519050919050565b600081549050919050565b600081519050919050565b6000602082019050919050565b6000600182019050919050565b600082825260208201905092915050565b600082825260208201905092915050565b600082825260208201905092915050565b600082825260208201905092915050565b600081905092915050565b6000612c9982612dbc565b9150612ca483612dbc565b9250827fffffffffffffffffffffffffffffffffffffffffffffffffffffffffffffffff03821115612cd957612cd8612ef8565b5b828201905092915050565b6000612cef82612dbc565b9150612cfa83612dbc565b9250817fffffffffffffffffffffffffffffffffffffffffffffffffffffffffffffffff0483118215151615612d3357612d32612ef8565b5b828202905092915050565b6000819050919050565b6000612d5382612d9c565b9050919050565b60008115159050919050565b6000819050919050565b60007fffffffff0000000000000000000000000000000000000000000000000000000082169050919050565b600073ffffffffffffffffffffffffffffffffffffffff82169050919050565b6000819050919050565b82818337600083830152505050565b60005b83811015612df3578082015181840152602081019050612dd8565b83811115612e02576000848401525b50505050565b6000612e1382612dbc565b91506000821415612e2757612e26612ef8565b5b600182039050919050565b60006002820490506001821680612e4a57607f821691505b60208210811415612e5e57612e5d612f27565b5b50919050565b6000612e77612e7283612fa9565b612d3e565b9050919050565b612e8782612f98565b810181811067ffffffffffffffff82111715612ea657612ea5612f56565b5b80604052505050565b6000612eba82612dbc565b91507fffffffffffffffffffffffffffffffffffffffffffffffffffffffffffffffff821415612eed57612eec612ef8565b5b600182019050919050565b7f4e487b7100000000000000000000000000000000000000000000000000000000600052601160045260246000fd5b7f4e487b7100000000000000000000000000000000000000000000000000000000600052602260045260246000fd5b7f4e487b7100000000000000000000000000000000000000000000000000000000600052604160045260246000fd5b6000612f918254612e64565b9050919050565b6000601f19601f8301169050919050565b60008160001c9050919050565b7f537472696e67733a20686578206c656e67746820696e73756666696369656e74600082015250565b7f6f6e6c79207768656e20766f746573206172652073657420746f207075626c6960008201527f632063616e20796f75207669657720766f746500000000000000000000000000602082015250565b7f6469726563746f72000000000000000000000000000000000000000000000000600082015250565b7f4f6e6c7920636861697220706572736f6e20616e64207465616368657220636160008201527f6e20736574757020656c656374696f6e00000000000000000000000000000000602082015250565b7f54686572652073686f756c64206265206174206c6561737420312063616e646960008201527f646174652e000000000000000000000000000000000000000000000000000000602082015250565b7f456c656374696f6e2068617320656e6465642100000000000000000000000000600082015250565b7f7075626c69630000000000000000000000000000000000000000000000000000600082015250565b7f456c656374696f6e20686173206e6f7420626567756e21000000000000000000600082015250565b7f7465616368657200000000000000000000000000000000000000000000000000600082015250565b7f496e76616c69642063616e64696461746520746f20566f746521000000000000600082015250565b7f4f6e6c79207374616b6520686f6c646572732063616e20766f74650000000000600082015250565b7f5669657720737461747573206973206e6f77207075626c696300000000000000600082015250565b7f566f7465722068617320616c726561647920566f746564210000000000000000600082015250565b7f416363657373436f6e74726f6c3a206163636f756e7420000000000000000000600082015250565b7f4f6e6c79206368616972706572736f6e2063616e20706572666f726d20726f6c60008201527f6500000000000000000000000000000000000000000000000000000000000000602082015250565b7f206973206d697373696e6720726f6c6520000000000000000000000000000000600082015250565b7f416363657373436f6e74726f6c3a2063616e206f6e6c792072656e6f756e636560008201527f20726f6c657320666f722073656c660000000000000000000000000000000000602082015250565b61333681612d48565b811461334157600080fd5b50565b61334d81612d66565b811461335857600080fd5b50565b61336481612d70565b811461336f57600080fd5b50565b61337b81612dbc565b811461338657600080fd5b5056fea2646970667358221220cc4d0770e10bc2a458d55cd55c02661511c94ef04d35c1f0bd59c772115ad75a64736f6c63430008040033",
  "linkReferences": {},
  "deployedLinkReferences": {}
}