{
    "_format": "hh-sol-artifact-1",
    "contractName": "SimpleElection",
    "sourceName": "contracts/Election.sol",
    "abi": [
        {
            "inputs": [
                {
                    "internalType": "string[]",
                    "name": "_nda",
                    "type": "string[]"
                }
            ],
            "stateMutability": "nonpayable",
            "type": "constructor"
        },
        {
            "anonymous": false,
            "inputs": [
                {
                    "indexed": false,
                    "internalType": "uint256",
                    "name": "_candidateId",
                    "type": "uint256"
                },
                {
                    "indexed": false,
                    "internalType": "string",
                    "name": "_candidateName",
                    "type": "string"
                }
            ],
            "name": "CandidateCreated",
            "type": "event"
        },
        {
            "anonymous": false,
            "inputs": [
                {
                    "indexed": false,
                    "internalType": "uint256[]",
                    "name": "_winnerIds",
                    "type": "uint256[]"
                },
                {
                    "indexed": false,
                    "internalType": "uint256",
                    "name": "_winnerVoteCount",
                    "type": "uint256"
                }
            ],
            "name": "ElectionEnded",
            "type": "event"
        },
        {
            "anonymous": false,
            "inputs": [
                {
                    "indexed": true,
                    "internalType": "bytes32",
                    "name": "role",
                    "type": "bytes32"
                },
                {
                    "indexed": true,
                    "internalType": "bytes32",
                    "name": "previousAdminRole",
                    "type": "bytes32"
                },
                {
                    "indexed": true,
                    "internalType": "bytes32",
                    "name": "newAdminRole",
                    "type": "bytes32"
                }
            ],
            "name": "RoleAdminChanged",
            "type": "event"
        },
        {
            "anonymous": false,
            "inputs": [
                {
                    "indexed": true,
                    "internalType": "bytes32",
                    "name": "role",
                    "type": "bytes32"
                },
                {
                    "indexed": true,
                    "internalType": "address",
                    "name": "account",
                    "type": "address"
                },
                {
                    "indexed": true,
                    "internalType": "address",
                    "name": "sender",
                    "type": "address"
                }
            ],
            "name": "RoleGranted",
            "type": "event"
        },
        {
            "anonymous": false,
            "inputs": [
                {
                    "indexed": true,
                    "internalType": "bytes32",
                    "name": "role",
                    "type": "bytes32"
                },
                {
                    "indexed": true,
                    "internalType": "address",
                    "name": "account",
                    "type": "address"
                },
                {
                    "indexed": true,
                    "internalType": "address",
                    "name": "sender",
                    "type": "address"
                }
            ],
            "name": "RoleRevoked",
            "type": "event"
        },
        {
            "anonymous": false,
            "inputs": [
                {
                    "indexed": false,
                    "internalType": "uint256",
                    "name": "_candidateId",
                    "type": "uint256"
                },
                {
                    "indexed": false,
                    "internalType": "uint256",
                    "name": "_candidateVoteCount",
                    "type": "uint256"
                }
            ],
            "name": "VoteForCandidate",
            "type": "event"
        },
        {
            "anonymous": false,
            "inputs": [
                {
                    "indexed": false,
                    "internalType": "string",
                    "name": "_changed",
                    "type": "string"
                }
            ],
            "name": "changedViewStatus",
            "type": "event"
        },
        {
            "inputs": [],
            "name": "CHAIR_PERSON_ROLE",
            "outputs": [
                {
                    "internalType": "bytes32",
                    "name": "",
                    "type": "bytes32"
                }
            ],
            "stateMutability": "view",
            "type": "function"
        },
        {
            "inputs": [],
            "name": "DEFAULT_ADMIN_ROLE",
            "outputs": [
                {
                    "internalType": "bytes32",
                    "name": "",
                    "type": "bytes32"
                }
            ],
            "stateMutability": "view",
            "type": "function"
        },
        {
            "inputs": [],
            "name": "SETUP_ROLE",
            "outputs": [
                {
                    "internalType": "bytes32",
                    "name": "",
                    "type": "bytes32"
                }
            ],
            "stateMutability": "view",
            "type": "function"
        },
        {
            "inputs": [],
            "name": "VOTING_ROLE",
            "outputs": [
                {
                    "internalType": "bytes32",
                    "name": "",
                    "type": "bytes32"
                }
            ],
            "stateMutability": "view",
            "type": "function"
        },
        {
            "inputs": [
                {
                    "internalType": "string[]",
                    "name": "_candidates",
                    "type": "string[]"
                }
            ],
            "name": "_setUpElection",
            "outputs": [],
            "stateMutability": "nonpayable",
            "type": "function"
        },
        {
            "inputs": [
                {
                    "internalType": "address",
                    "name": "_newAdmin",
                    "type": "address"
                }
            ],
            "name": "addChairPerson",
            "outputs": [],
            "stateMutability": "nonpayable",
            "type": "function"
        },
        {
            "inputs": [
                {
                    "internalType": "string",
                    "name": "_role",
                    "type": "string"
                }
            ],
            "name": "addStakeHolder",
            "outputs": [],
            "stateMutability": "nonpayable",
            "type": "function"
        },
        {
            "inputs": [],
            "name": "adminCount",
            "outputs": [
                {
                    "internalType": "uint256",
                    "name": "",
                    "type": "uint256"
                }
            ],
            "stateMutability": "view",
            "type": "function"
        },
        {
            "inputs": [
                {
                    "internalType": "uint256",
                    "name": "",
                    "type": "uint256"
                }
            ],
            "name": "candidates",
            "outputs": [
                {
                    "internalType": "uint256",
                    "name": "id",
                    "type": "uint256"
                },
                {
                    "internalType": "string",
                    "name": "name",
                    "type": "string"
                },
                {
                    "internalType": "uint256",
                    "name": "voteCount",
                    "type": "uint256"
                }
            ],
            "stateMutability": "view",
            "type": "function"
        },
        {
            "inputs": [],
            "name": "candidatesCount",
            "outputs": [
                {
                    "internalType": "uint256",
                    "name": "",
                    "type": "uint256"
                }
            ],
            "stateMutability": "view",
            "type": "function"
        },
        {
            "inputs": [],
            "name": "changeViewStatus",
            "outputs": [],
            "stateMutability": "nonpayable",
            "type": "function"
        },
        {
            "inputs": [],
            "name": "description",
            "outputs": [
                {
                    "internalType": "string",
                    "name": "",
                    "type": "string"
                }
            ],
            "stateMutability": "view",
            "type": "function"
        },
        {
            "inputs": [],
            "name": "displayResult",
            "outputs": [
                {
                    "internalType": "uint256",
                    "name": "",
                    "type": "uint256"
                }
            ],
            "stateMutability": "view",
            "type": "function"
        },
        {
            "inputs": [],
            "name": "endElection",
            "outputs": [],
            "stateMutability": "nonpayable",
            "type": "function"
        },
        {
            "inputs": [
                {
                    "internalType": "bytes32",
                    "name": "role",
                    "type": "bytes32"
                }
            ],
            "name": "getRoleAdmin",
            "outputs": [
                {
                    "internalType": "bytes32",
                    "name": "",
                    "type": "bytes32"
                }
            ],
            "stateMutability": "view",
            "type": "function"
        },
        {
            "inputs": [
                {
                    "internalType": "bytes32",
                    "name": "role",
                    "type": "bytes32"
                },
                {
                    "internalType": "address",
                    "name": "account",
                    "type": "address"
                }
            ],
            "name": "grantRole",
            "outputs": [],
            "stateMutability": "nonpayable",
            "type": "function"
        },
        {
            "inputs": [
                {
                    "internalType": "bytes32",
                    "name": "role",
                    "type": "bytes32"
                },
                {
                    "internalType": "address",
                    "name": "account",
                    "type": "address"
                }
            ],
            "name": "hasRole",
            "outputs": [
                {
                    "internalType": "bool",
                    "name": "",
                    "type": "bool"
                }
            ],
            "stateMutability": "view",
            "type": "function"
        },
        {
            "inputs": [],
            "name": "isActive",
            "outputs": [
                {
                    "internalType": "bool",
                    "name": "",
                    "type": "bool"
                }
            ],
            "stateMutability": "view",
            "type": "function"
        },
        {
            "inputs": [],
            "name": "isEnded",
            "outputs": [
                {
                    "internalType": "bool",
                    "name": "",
                    "type": "bool"
                }
            ],
            "stateMutability": "view",
            "type": "function"
        },
        {
            "inputs": [],
            "name": "name",
            "outputs": [
                {
                    "internalType": "string",
                    "name": "",
                    "type": "string"
                }
            ],
            "stateMutability": "view",
            "type": "function"
        },
        {
            "inputs": [
                {
                    "internalType": "bytes32",
                    "name": "role",
                    "type": "bytes32"
                },
                {
                    "internalType": "address",
                    "name": "account",
                    "type": "address"
                }
            ],
            "name": "renounceRole",
            "outputs": [],
            "stateMutability": "nonpayable",
            "type": "function"
        },
        {
            "inputs": [],
            "name": "retrieveVotes",
            "outputs": [
                {
                    "components": [
                        {
                            "internalType": "uint256",
                            "name": "id",
                            "type": "uint256"
                        },
                        {
                            "internalType": "string",
                            "name": "name",
                            "type": "string"
                        },
                        {
                            "internalType": "uint256",
                            "name": "voteCount",
                            "type": "uint256"
                        }
                    ],
                    "internalType": "struct SimpleElection.Candidate[]",
                    "name": "",
                    "type": "tuple[]"
                }
            ],
            "stateMutability": "view",
            "type": "function"
        },
        {
            "inputs": [
                {
                    "internalType": "bytes32",
                    "name": "role",
                    "type": "bytes32"
                },
                {
                    "internalType": "address",
                    "name": "account",
                    "type": "address"
                }
            ],
            "name": "revokeRole",
            "outputs": [],
            "stateMutability": "nonpayable",
            "type": "function"
        },
        {
            "inputs": [
                {
                    "internalType": "uint256",
                    "name": "",
                    "type": "uint256"
                }
            ],
            "name": "stakeHolders",
            "outputs": [
                {
                    "internalType": "address",
                    "name": "stakeHolderAddress",
                    "type": "address"
                },
                {
                    "internalType": "string",
                    "name": "role",
                    "type": "string"
                }
            ],
            "stateMutability": "view",
            "type": "function"
        },
        {
            "inputs": [],
            "name": "stakeHoldersCount",
            "outputs": [
                {
                    "internalType": "uint256",
                    "name": "",
                    "type": "uint256"
                }
            ],
            "stateMutability": "view",
            "type": "function"
        },
        {
            "inputs": [],
            "name": "startElection",
            "outputs": [],
            "stateMutability": "nonpayable",
            "type": "function"
        },
        {
            "inputs": [
                {
                    "internalType": "bytes4",
                    "name": "interfaceId",
                    "type": "bytes4"
                }
            ],
            "name": "supportsInterface",
            "outputs": [
                {
                    "internalType": "bool",
                    "name": "",
                    "type": "bool"
                }
            ],
            "stateMutability": "view",
            "type": "function"
        },
        {
            "inputs": [
                {
                    "internalType": "uint256",
                    "name": "_candidateId",
                    "type": "uint256"
                }
            ],
            "name": "vote",
            "outputs": [],
            "stateMutability": "nonpayable",
            "type": "function"
        },
        {
            "inputs": [
                {
                    "internalType": "address",
                    "name": "",
                    "type": "address"
                }
            ],
            "name": "voters",
            "outputs": [
                {
                    "internalType": "bool",
                    "name": "",
                    "type": "bool"
                }
            ],
            "stateMutability": "view",
            "type": "function"
        },
        {
            "inputs": [
                {
                    "internalType": "uint256",
                    "name": "",
                    "type": "uint256"
                }
            ],
            "name": "winnerIds",
            "outputs": [
                {
                    "internalType": "uint256",
                    "name": "",
                    "type": "uint256"
                }
            ],
            "stateMutability": "view",
            "type": "function"
        }
    ],
    "bytecode": "0x60806040526000600360006101000a81548160ff0219169083151502179055506000600360016101000a81548160ff0219169083151502179055506040518060400160405280600781526020017f70726976617465000000000000000000000000000000000000000000000000008152506004908051906020019062000087929190620003be565b50600060075560006008556000600955348015620000a457600080fd5b5060405162003b2138038062003b218339818101604052810190620000ca91906200059d565b8060008151811062000105577f4e487b7100000000000000000000000000000000000000000000000000000000600052603260045260246000fd5b60200260200101516001908051906020019062000124929190620003be565b508060018151811062000160577f4e487b7100000000000000000000000000000000000000000000000000000000600052603260045260246000fd5b6020026020010151600290805190602001906200017f929190620003be565b506200019133620001a960201b60201c565b620001a233620001de60201b60201c565b5062000781565b620001db7fe30bea836627a3788b881fc6b480f5a9a0c225fb6f83d77f346323c2c248b065826200024560201b60201c565b50565b620002107f1153057e7a3c8d42df44caa2902d90737a048ee746d653a72beb49a4213bf38b826200024560201b60201c565b620002427fa0cc82bfc6a0e1fd4746daa2c96f2cbac6feca4912d2b7f78808a14ff40807db826200024560201b60201c565b50565b6200025782826200025b60201b60201c565b5050565b6200026d82826200034c60201b60201c565b6200034857600160008084815260200190815260200160002060000160008373ffffffffffffffffffffffffffffffffffffffff1673ffffffffffffffffffffffffffffffffffffffff16815260200190815260200160002060006101000a81548160ff021916908315150217905550620002ed620003b660201b60201c565b73ffffffffffffffffffffffffffffffffffffffff168173ffffffffffffffffffffffffffffffffffffffff16837f2f8788117e7eff1d82e926ec794901d17c78024a50270940304540a733656f0d60405160405180910390a45b5050565b600080600084815260200190815260200160002060000160008373ffffffffffffffffffffffffffffffffffffffff1673ffffffffffffffffffffffffffffffffffffffff16815260200190815260200160002060009054906101000a900460ff16905092915050565b600033905090565b828054620003cc90620006a6565b90600052602060002090601f016020900481019282620003f057600085556200043c565b82601f106200040b57805160ff19168380011785556200043c565b828001600101855582156200043c579182015b828111156200043b5782518255916020019190600101906200041e565b5b5090506200044b91906200044f565b5090565b5b808211156200046a57600081600090555060010162000450565b5090565b6000620004856200047f846200060b565b620005e2565b90508083825260208201905082856020860282011115620004a557600080fd5b60005b85811015620004f457815167ffffffffffffffff811115620004c957600080fd5b808601620004d8898262000570565b85526020850194506020840193505050600181019050620004a8565b5050509392505050565b6000620005156200050f846200063a565b620005e2565b9050828152602081018484840111156200052e57600080fd5b6200053b84828562000670565b509392505050565b600082601f8301126200055557600080fd5b8151620005678482602086016200046e565b91505092915050565b600082601f8301126200058257600080fd5b815162000594848260208601620004fe565b91505092915050565b600060208284031215620005b057600080fd5b600082015167ffffffffffffffff811115620005cb57600080fd5b620005d98482850162000543565b91505092915050565b6000620005ee62000601565b9050620005fc8282620006dc565b919050565b6000604051905090565b600067ffffffffffffffff82111562000629576200062862000741565b5b602082029050602081019050919050565b600067ffffffffffffffff82111562000658576200065762000741565b5b620006638262000770565b9050602081019050919050565b60005b838110156200069057808201518184015260208101905062000673565b83811115620006a0576000848401525b50505050565b60006002820490506001821680620006bf57607f821691505b60208210811415620006d657620006d562000712565b5b50919050565b620006e78262000770565b810181811067ffffffffffffffff8211171562000709576200070862000741565b5b80604052505050565b7f4e487b7100000000000000000000000000000000000000000000000000000000600052602260045260246000fd5b7f4e487b7100000000000000000000000000000000000000000000000000000000600052604160045260246000fd5b6000601f19601f8301169050919050565b61339080620007916000396000f3fe608060405234801561001057600080fd5b50600436106101da5760003560e01c806359f78468116101045780639f8d9302116100a2578063acad41a411610071578063acad41a414610513578063c90aa2b414610544578063d547741f14610562578063f97381c81461057e576101da565b80639f8d930214610489578063a217fddf146104a7578063a3ec138d146104c5578063a4fd6f56146104f5576101da565b80637284e416116100de5780637284e416146104155780638070e50f146104335780639196b9071461044f57806391d1485414610459576101da565b806359f78468146103e357806362d73eb8146103ed578063648bcae2146103f7576101da565b8063248a9ca31161017c5780633477ee2e1161014b5780633477ee2e1461034957806336568abe1461037b5780633f5ecd6a14610397578063403d1312146103b3576101da565b8063248a9ca3146102c15780632b7832b3146102f15780632d35a8a21461030f5780632f2ff15d1461032d576101da565b806306fdde03116101b857806306fdde031461024957806312a70f0b14610267578063226373011461028557806322f3e2d4146102a3576101da565b80630121b93f146101df57806301ffc9a7146101fb578063031e50041461022b575b600080fd5b6101f960048036038101906101f49190612227565b61059a565b005b610215600480360381019061021091906121bd565b610646565b604051610222919061288f565b60405180910390f35b6102336106c0565b604051610240919061283d565b60405180910390f35b610251610878565b60405161025e91906128c5565b60405180910390f35b61026f610906565b60405161027c91906128aa565b60405180910390f35b61028d61092a565b60405161029a91906128aa565b60405180910390f35b6102ab61094e565b6040516102b8919061288f565b60405180910390f35b6102db60048036038101906102d69190612158565b610961565b6040516102e891906128aa565b60405180910390f35b6102f9610980565b6040516103069190612a67565b60405180910390f35b610317610986565b6040516103249190612a67565b60405180910390f35b61034760048036038101906103429190612181565b61098c565b005b610363600480360381019061035e9190612227565b6109b5565b60405161037293929190612ab2565b60405180910390f35b61039560048036038101906103909190612181565b610a67565b005b6103b160048036038101906103ac91906120ee565b610aea565b005b6103cd60048036038101906103c89190612227565b610b61565b6040516103da9190612a67565b60405180910390f35b6103eb610b85565b005b6103f5610c32565b005b6103ff610c99565b60405161040c9190612a67565b60405180910390f35b61041d610d30565b60405161042a91906128c5565b60405180910390f35b61044d60048036038101906104489190612117565b610dbe565b005b610457610eb8565b005b610473600480360381019061046e9190612181565b610f85565b604051610480919061288f565b60405180910390f35b610491610fef565b60405161049e91906128aa565b60405180910390f35b6104af611013565b6040516104bc91906128aa565b60405180910390f35b6104df60048036038101906104da91906120ee565b61101a565b6040516104ec919061288f565b60405180910390f35b6104fd61103a565b60405161050a919061288f565b60405180910390f35b61052d60048036038101906105289190612227565b61104d565b60405161053b92919061280d565b60405180910390f35b61054c611119565b6040516105599190612a67565b60405180910390f35b61057c60048036038101906105779190612181565b61111f565b005b610598600480360381019061059391906121e6565b611148565b005b600360019054906101000a900460ff16156105ea576040517f08c379a00000000000000000000000000000000000000000000000000000000081526004016105e190612967565b60405180910390fd5b600360009054906101000a900460ff16610639576040517f08c379a000000000000000000000000000000000000000000000000000000000815260040161063090612987565b60405180910390fd5b61064381336113a3565b50565b60007f7965db0b000000000000000000000000000000000000000000000000000000007bffffffffffffffffffffffffffffffffffffffffffffffffffffffff1916827bffffffffffffffffffffffffffffffffffffffffffffffffffffffff191614806106b957506106b8826115a4565b5b9050919050565b6060600060075467ffffffffffffffff811115610706577f4e487b7100000000000000000000000000000000000000000000000000000000600052604160045260246000fd5b60405190808252806020026020018201604052801561073f57816020015b61072c611e9d565b8152602001906001900390816107245790505b50905060005b600754811015610870576000600a60008381526020019081526020016000209050806040518060600160405290816000820154815260200160018201805461078c90612e03565b80601f01602080910402602001604051908101604052809291908181526020018280546107b890612e03565b80156108055780601f106107da57610100808354040283529160200191610805565b820191906000526020600020905b8154815290600101906020018083116107e857829003601f168201915b50505050508152602001600282015481525050838381518110610851577f4e487b7100000000000000000000000000000000000000000000000000000000600052603260045260246000fd5b602002602001018190525050808061086890612e80565b915050610745565b508091505090565b6001805461088590612e03565b80601f01602080910402602001604051908101604052809291908181526020018280546108b190612e03565b80156108fe5780601f106108d3576101008083540402835291602001916108fe565b820191906000526020600020905b8154815290600101906020018083116108e157829003601f168201915b505050505081565b7fa0cc82bfc6a0e1fd4746daa2c96f2cbac6feca4912d2b7f78808a14ff40807db81565b7f1153057e7a3c8d42df44caa2902d90737a048ee746d653a72beb49a4213bf38b81565b600360009054906101000a900460ff1681565b6000806000838152602001908152602001600020600101549050919050565b60085481565b60075481565b61099582610961565b6109a6816109a161160e565b611616565b6109b083836116b3565b505050565b600a6020528060005260406000206000915090508060000154908060010180546109de90612e03565b80601f0160208091040260200160405190810160405280929190818152602001828054610a0a90612e03565b8015610a575780601f10610a2c57610100808354040283529160200191610a57565b820191906000526020600020905b815481529060010190602001808311610a3a57829003601f168201915b5050505050908060020154905083565b610a6f61160e565b73ffffffffffffffffffffffffffffffffffffffff168173ffffffffffffffffffffffffffffffffffffffff1614610adc576040517f08c379a0000000000000000000000000000000000000000000000000000000008152600401610ad390612a47565b60405180910390fd5b610ae68282611793565b5050565b33610af481611874565b610b33576040517f08c379a0000000000000000000000000000000000000000000000000000000008152600401610b2a90612a27565b60405180910390fd5b610b5d7fe30bea836627a3788b881fc6b480f5a9a0c225fb6f83d77f346323c2c248b0658361098c565b5050565b600c8181548110610b7157600080fd5b906000526020600020016000915090505481565b33610b8f81611874565b610bce576040517f08c379a0000000000000000000000000000000000000000000000000000000008152600401610bc590612a27565b60405180910390fd5b6001600360016101000a81548160ff021916908315150217905550610bf16118a7565b50507f38d8ebbbb4803f034f19b4cf2f19bfb84cc5dea177696c1f80a19357d5602e04600c600b54604051610c2792919061285f565b60405180910390a150565b33610c3c81611874565b610c7b576040517f08c379a0000000000000000000000000000000000000000000000000000000008152600401610c7290612a27565b60405180910390fd5b6001600360006101000a81548160ff02191690831515021790555050565b6000604051602001610caa906127a9565b604051602081830303815290604052805190602001206004604051602001610cd2919061277d565b6040516020818303038152906040528051906020012014610d28576040517f08c379a0000000000000000000000000000000000000000000000000000000008152600401610d1f90612907565b60405180910390fd5b600b54905090565b60028054610d3d90612e03565b80601f0160208091040260200160405190810160405280929190818152602001828054610d6990612e03565b8015610db65780601f10610d8b57610100808354040283529160200191610db6565b820191906000526020600020905b815481529060010190602001808311610d9957829003601f168201915b505050505081565b33610dc881611a1b565b610e07576040517f08c379a0000000000000000000000000000000000000000000000000000000008152600401610dfe90612927565b60405180910390fd5b6000825111610e4b576040517f08c379a0000000000000000000000000000000000000000000000000000000008152600401610e4290612947565b60405180910390fd5b60005b8251811015610eb357610ea0838281518110610e93577f4e487b7100000000000000000000000000000000000000000000000000000000600052603260045260246000fd5b6020026020010151611a4e565b8080610eab90612e80565b915050610e4e565b505050565b33610ec281611a1b565b610f01576040517f08c379a0000000000000000000000000000000000000000000000000000000008152600401610ef890612927565b60405180910390fd5b6040518060400160405280600681526020017f7075626c6963000000000000000000000000000000000000000000000000000081525060049080519060200190610f4c929190611ebe565b507ff333e2841e7080e697cd453c20436774b54a41376ac7ffa593cf4d2981d42c4d604051610f7a906129e7565b60405180910390a150565b600080600084815260200190815260200160002060000160008373ffffffffffffffffffffffffffffffffffffffff1673ffffffffffffffffffffffffffffffffffffffff16815260200190815260200160002060009054906101000a900460ff16905092915050565b7fe30bea836627a3788b881fc6b480f5a9a0c225fb6f83d77f346323c2c248b06581565b6000801b81565b60066020528060005260406000206000915054906101000a900460ff1681565b600360019054906101000a900460ff1681565b60056020528060005260406000206000915090508060000160009054906101000a900473ffffffffffffffffffffffffffffffffffffffff169080600101805461109690612e03565b80601f01602080910402602001604051908101604052809291908181526020018280546110c290612e03565b801561110f5780601f106110e45761010080835404028352916020019161110f565b820191906000526020600020905b8154815290600101906020018083116110f257829003601f168201915b5050505050905082565b60095481565b61112882610961565b6111398161113461160e565b611616565b6111438383611793565b505050565b604051602001611157906127be565b604051602081830303815290604052805190602001208160405160200161117e9190612766565b6040516020818303038152906040528051906020012014806111e957506040516020016111aa90612794565b60405160208183030381529060405280519060200120816040516020016111d19190612766565b60405160208183030381529060405280519060200120145b156112b7576111f733611b0b565b60405180604001604052803373ffffffffffffffffffffffffffffffffffffffff1681526020018281525060056000600954815260200190815260200160002060008201518160000160006101000a81548173ffffffffffffffffffffffffffffffffffffffff021916908373ffffffffffffffffffffffffffffffffffffffff160217905550602082015181600101908051906020019061129a929190611ebe565b50905050600960008154809291906112b190612e80565b91905055505b6112e17fa0cc82bfc6a0e1fd4746daa2c96f2cbac6feca4912d2b7f78808a14ff40807db33611b62565b60405180604001604052803373ffffffffffffffffffffffffffffffffffffffff1681526020018281525060056000600954815260200190815260200160002060008201518160000160006101000a81548173ffffffffffffffffffffffffffffffffffffffff021916908373ffffffffffffffffffffffffffffffffffffffff1602179055506020820151816001019080519060200190611384929190611ebe565b509050506009600081548092919061139b90612e80565b919050555050565b81600754811080156113b6575060008110155b6113f5576040517f08c379a00000000000000000000000000000000000000000000000000000000081526004016113ec906129a7565b60405180910390fd5b816113ff81611b70565b61143e576040517f08c379a0000000000000000000000000000000000000000000000000000000008152600401611435906129c7565b60405180910390fd5b600660008473ffffffffffffffffffffffffffffffffffffffff1673ffffffffffffffffffffffffffffffffffffffff16815260200190815260200160002060009054906101000a900460ff16156114cb576040517f08c379a00000000000000000000000000000000000000000000000000000000081526004016114c290612a07565b60405180910390fd5b6001600660008573ffffffffffffffffffffffffffffffffffffffff1673ffffffffffffffffffffffffffffffffffffffff16815260200190815260200160002060006101000a81548160ff021916908315150217905550600a6000858152602001908152602001600020600201600081548092919061154a90612e80565b91905055507fd3ebd88818d034d26c5d98bcef9c7c45207130238e76e8cf0b3ba00e906851bf84600a600087815260200190815260200160002060020154604051611596929190612af0565b60405180910390a150505050565b60007f01ffc9a7000000000000000000000000000000000000000000000000000000007bffffffffffffffffffffffffffffffffffffffffffffffffffffffff1916827bffffffffffffffffffffffffffffffffffffffffffffffffffffffff1916149050919050565b600033905090565b6116208282610f85565b6116af576116458173ffffffffffffffffffffffffffffffffffffffff166014611ba3565b6116538360001c6020611ba3565b6040516020016116649291906127d3565b6040516020818303038152906040526040517f08c379a00000000000000000000000000000000000000000000000000000000081526004016116a691906128c5565b60405180910390fd5b5050565b6116bd8282610f85565b61178f57600160008084815260200190815260200160002060000160008373ffffffffffffffffffffffffffffffffffffffff1673ffffffffffffffffffffffffffffffffffffffff16815260200190815260200160002060006101000a81548160ff02191690831515021790555061173461160e565b73ffffffffffffffffffffffffffffffffffffffff168173ffffffffffffffffffffffffffffffffffffffff16837f2f8788117e7eff1d82e926ec794901d17c78024a50270940304540a733656f0d60405160405180910390a45b5050565b61179d8282610f85565b1561187057600080600084815260200190815260200160002060000160008373ffffffffffffffffffffffffffffffffffffffff1673ffffffffffffffffffffffffffffffffffffffff16815260200190815260200160002060006101000a81548160ff02191690831515021790555061181561160e565b73ffffffffffffffffffffffffffffffffffffffff168173ffffffffffffffffffffffffffffffffffffffff16837ff6391f5c32d9c69d2a47ea670b442974b53935d1edc7fd64eb21e047a839171b60405160405180910390a45b5050565b60006118a07fe30bea836627a3788b881fc6b480f5a9a0c225fb6f83d77f346323c2c248b06583610f85565b9050919050565b6000606060005b6007548110156119bb57600b54600a600083815260200190815260200160002060020154111561194757600a600082815260200190815260200160002060020154600b81905550600c60006119039190611f44565b600c600a60008381526020019081526020016000206000015490806001815401808255809150506001900390600052602060002001600090919091909150556119a8565b600b54600a60008381526020019081526020016000206002015414156119a757600c600a60008381526020019081526020016000206000015490806001815401808255809150506001900390600052602060002001600090919091909150555b5b80806119b390612e80565b9150506118ae565b50600b54600c80805480602002602001604051908101604052809291908181526020018280548015611a0c57602002820191906000526020600020905b8154815260200190600101908083116119f8575b50505050509050915091509091565b6000611a477f1153057e7a3c8d42df44caa2902d90737a048ee746d653a72beb49a4213bf38b83610f85565b9050919050565b604051806060016040528060075481526020018281526020016000815250600a60006007548152602001908152602001600020600082015181600001556020820151816001019080519060200190611aa7929190611ebe565b50604082015181600201559050507f78d27a3c512303f604b46bc28acc0ca45abe6420172a017c5a6dc585821eb63960075482604051611ae8929190612a82565b60405180910390a160076000815480929190611b0390612e80565b919050555050565b611b357f1153057e7a3c8d42df44caa2902d90737a048ee746d653a72beb49a4213bf38b82611b62565b611b5f7fa0cc82bfc6a0e1fd4746daa2c96f2cbac6feca4912d2b7f78808a14ff40807db82611b62565b50565b611b6c82826116b3565b5050565b6000611b9c7fa0cc82bfc6a0e1fd4746daa2c96f2cbac6feca4912d2b7f78808a14ff40807db83610f85565b9050919050565b606060006002836002611bb69190612cb5565b611bc09190612c5f565b67ffffffffffffffff811115611bff577f4e487b7100000000000000000000000000000000000000000000000000000000600052604160045260246000fd5b6040519080825280601f01601f191660200182016040528015611c315781602001600182028036833780820191505090505b5090507f300000000000000000000000000000000000000000000000000000000000000081600081518110611c8f577f4e487b7100000000000000000000000000000000000000000000000000000000600052603260045260246000fd5b60200101907effffffffffffffffffffffffffffffffffffffffffffffffffffffffffffff1916908160001a9053507f780000000000000000000000000000000000000000000000000000000000000081600181518110611d19577f4e487b7100000000000000000000000000000000000000000000000000000000600052603260045260246000fd5b60200101907effffffffffffffffffffffffffffffffffffffffffffffffffffffffffffff1916908160001a90535060006001846002611d599190612cb5565b611d639190612c5f565b90505b6001811115611e4f577f3031323334353637383961626364656600000000000000000000000000000000600f861660108110611dcb577f4e487b7100000000000000000000000000000000000000000000000000000000600052603260045260246000fd5b1a60f81b828281518110611e08577f4e487b7100000000000000000000000000000000000000000000000000000000600052603260045260246000fd5b60200101907effffffffffffffffffffffffffffffffffffffffffffffffffffffffffffff1916908160001a905350600485901c945080611e4890612dd9565b9050611d66565b5060008414611e93576040517f08c379a0000000000000000000000000000000000000000000000000000000008152600401611e8a906128e7565b60405180910390fd5b8091505092915050565b60405180606001604052806000815260200160608152602001600081525090565b828054611eca90612e03565b90600052602060002090601f016020900481019282611eec5760008555611f33565b82601f10611f0557805160ff1916838001178555611f33565b82800160010185558215611f33579182015b82811115611f32578251825591602001919060010190611f17565b5b509050611f409190611f65565b5090565b5080546000825590600052602060002090810190611f629190611f65565b50565b5b80821115611f7e576000816000905550600101611f66565b5090565b6000611f95611f9084612b3e565b612b19565b90508083825260208201905082856020860282011115611fb457600080fd5b60005b85811015611ffe57813567ffffffffffffffff811115611fd657600080fd5b808601611fe389826120af565b85526020850194506020840193505050600181019050611fb7565b5050509392505050565b600061201b61201684612b6a565b612b19565b90508281526020810184848401111561203357600080fd5b61203e848285612d97565b509392505050565b600081359050612055816132fe565b92915050565b600082601f83011261206c57600080fd5b813561207c848260208601611f82565b91505092915050565b60008135905061209481613315565b92915050565b6000813590506120a98161332c565b92915050565b600082601f8301126120c057600080fd5b81356120d0848260208601612008565b91505092915050565b6000813590506120e881613343565b92915050565b60006020828403121561210057600080fd5b600061210e84828501612046565b91505092915050565b60006020828403121561212957600080fd5b600082013567ffffffffffffffff81111561214357600080fd5b61214f8482850161205b565b91505092915050565b60006020828403121561216a57600080fd5b600061217884828501612085565b91505092915050565b6000806040838503121561219457600080fd5b60006121a285828601612085565b92505060206121b385828601612046565b9150509250929050565b6000602082840312156121cf57600080fd5b60006121dd8482850161209a565b91505092915050565b6000602082840312156121f857600080fd5b600082013567ffffffffffffffff81111561221257600080fd5b61221e848285016120af565b91505092915050565b60006020828403121561223957600080fd5b6000612247848285016120d9565b91505092915050565b600061225c83836126f8565b905092915050565b60006122708383612748565b60208301905092915050565b61228581612d19565b82525050565b600061229682612bd5565b6122a08185612c10565b9350836020820285016122b285612b9b565b8060005b858110156122ee57848403895281516122cf8582612250565b94506122da83612bf6565b925060208a019950506001810190506122b6565b50829750879550505050505092915050565b600061230b82612be0565b6123158185612c21565b935061232083612bab565b8060005b838110156123585761233582612f56565b61233f8882612264565b975061234a83612c03565b925050600181019050612324565b5085935050505092915050565b61236e81612d2b565b82525050565b61237d81612d37565b82525050565b600061238e82612beb565b6123988185612c32565b93506123a8818560208601612da6565b6123b181612f69565b840191505092915050565b60006123c782612beb565b6123d18185612c43565b93506123e1818560208601612da6565b6123ea81612f69565b840191505092915050565b600061240082612beb565b61240a8185612c54565b935061241a818560208601612da6565b80840191505092915050565b6000815461243381612e03565b61243d8186612c54565b9450600182166000811461245857600181146124695761249c565b60ff1983168652818601935061249c565b61247285612bc0565b60005b8381101561249457815481890152600182019150602081019050612475565b838801955050505b50505092915050565b60006124b2602083612c43565b91506124bd82612f87565b602082019050919050565b60006124d5603383612c43565b91506124e082612fb0565b604082019050919050565b60006124f8600883612c54565b915061250382612fff565b600882019050919050565b600061251b603083612c43565b915061252682613028565b604082019050919050565b600061253e602583612c43565b915061254982613077565b604082019050919050565b6000612561601383612c43565b915061256c826130c6565b602082019050919050565b6000612584600683612c54565b915061258f826130ef565b600682019050919050565b60006125a7601783612c43565b91506125b282613118565b602082019050919050565b60006125ca600783612c54565b91506125d582613141565b600782019050919050565b60006125ed601a83612c43565b91506125f88261316a565b602082019050919050565b6000612610601b83612c43565b915061261b82613193565b602082019050919050565b6000612633601983612c43565b915061263e826131bc565b602082019050919050565b6000612656601883612c43565b9150612661826131e5565b602082019050919050565b6000612679601783612c54565b91506126848261320e565b601782019050919050565b600061269c602183612c43565b91506126a782613237565b604082019050919050565b60006126bf601183612c54565b91506126ca82613286565b601182019050919050565b60006126e2602f83612c43565b91506126ed826132af565b604082019050919050565b60006060830160008301516127106000860182612748565b50602083015184820360208601526127288282612383565b915050604083015161273d6040860182612748565b508091505092915050565b61275181612d8d565b82525050565b61276081612d8d565b82525050565b600061277282846123f5565b915081905092915050565b60006127898284612426565b915081905092915050565b600061279f826124eb565b9150819050919050565b60006127b482612577565b9150819050919050565b60006127c9826125bd565b9150819050919050565b60006127de8261266c565b91506127ea82856123f5565b91506127f5826126b2565b915061280182846123f5565b91508190509392505050565b6000604082019050612822600083018561227c565b818103602083015261283481846123bc565b90509392505050565b60006020820190508181036000830152612857818461228b565b905092915050565b600060408201905081810360008301526128798185612300565b90506128886020830184612757565b9392505050565b60006020820190506128a46000830184612365565b92915050565b60006020820190506128bf6000830184612374565b92915050565b600060208201905081810360008301526128df81846123bc565b905092915050565b60006020820190508181036000830152612900816124a5565b9050919050565b60006020820190508181036000830152612920816124c8565b9050919050565b600060208201905081810360008301526129408161250e565b9050919050565b6000602082019050818103600083015261296081612531565b9050919050565b6000602082019050818103600083015261298081612554565b9050919050565b600060208201905081810360008301526129a08161259a565b9050919050565b600060208201905081810360008301526129c0816125e0565b9050919050565b600060208201905081810360008301526129e081612603565b9050919050565b60006020820190508181036000830152612a0081612626565b9050919050565b60006020820190508181036000830152612a2081612649565b9050919050565b60006020820190508181036000830152612a408161268f565b9050919050565b60006020820190508181036000830152612a60816126d5565b9050919050565b6000602082019050612a7c6000830184612757565b92915050565b6000604082019050612a976000830185612757565b8181036020830152612aa981846123bc565b90509392505050565b6000606082019050612ac76000830186612757565b8181036020830152612ad981856123bc565b9050612ae86040830184612757565b949350505050565b6000604082019050612b056000830185612757565b612b126020830184612757565b9392505050565b6000612b23612b34565b9050612b2f8282612e4f565b919050565b6000604051905090565b600067ffffffffffffffff821115612b5957612b58612f27565b5b602082029050602081019050919050565b600067ffffffffffffffff821115612b8557612b84612f27565b5b612b8e82612f69565b9050602081019050919050565b6000819050602082019050919050565b60008190508160005260206000209050919050565b60008190508160005260206000209050919050565b600081519050919050565b600081549050919050565b600081519050919050565b6000602082019050919050565b6000600182019050919050565b600082825260208201905092915050565b600082825260208201905092915050565b600082825260208201905092915050565b600082825260208201905092915050565b600081905092915050565b6000612c6a82612d8d565b9150612c7583612d8d565b9250827fffffffffffffffffffffffffffffffffffffffffffffffffffffffffffffffff03821115612caa57612ca9612ec9565b5b828201905092915050565b6000612cc082612d8d565b9150612ccb83612d8d565b9250817fffffffffffffffffffffffffffffffffffffffffffffffffffffffffffffffff0483118215151615612d0457612d03612ec9565b5b828202905092915050565b6000819050919050565b6000612d2482612d6d565b9050919050565b60008115159050919050565b6000819050919050565b60007fffffffff0000000000000000000000000000000000000000000000000000000082169050919050565b600073ffffffffffffffffffffffffffffffffffffffff82169050919050565b6000819050919050565b82818337600083830152505050565b60005b83811015612dc4578082015181840152602081019050612da9565b83811115612dd3576000848401525b50505050565b6000612de482612d8d565b91506000821415612df857612df7612ec9565b5b600182039050919050565b60006002820490506001821680612e1b57607f821691505b60208210811415612e2f57612e2e612ef8565b5b50919050565b6000612e48612e4383612f7a565b612d0f565b9050919050565b612e5882612f69565b810181811067ffffffffffffffff82111715612e7757612e76612f27565b5b80604052505050565b6000612e8b82612d8d565b91507fffffffffffffffffffffffffffffffffffffffffffffffffffffffffffffffff821415612ebe57612ebd612ec9565b5b600182019050919050565b7f4e487b7100000000000000000000000000000000000000000000000000000000600052601160045260246000fd5b7f4e487b7100000000000000000000000000000000000000000000000000000000600052602260045260246000fd5b7f4e487b7100000000000000000000000000000000000000000000000000000000600052604160045260246000fd5b6000612f628254612e35565b9050919050565b6000601f19601f8301169050919050565b60008160001c9050919050565b7f537472696e67733a20686578206c656e67746820696e73756666696369656e74600082015250565b7f6f6e6c79207768656e20766f746573206172652073657420746f207075626c6960008201527f632063616e20796f75207669657720766f746500000000000000000000000000602082015250565b7f6469726563746f72000000000000000000000000000000000000000000000000600082015250565b7f4f6e6c7920636861697220706572736f6e20616e64207465616368657220636160008201527f6e20736574757020656c656374696f6e00000000000000000000000000000000602082015250565b7f54686572652073686f756c64206265206174206c6561737420312063616e646960008201527f646174652e000000000000000000000000000000000000000000000000000000602082015250565b7f456c656374696f6e2068617320656e6465642100000000000000000000000000600082015250565b7f7075626c69630000000000000000000000000000000000000000000000000000600082015250565b7f456c656374696f6e20686173206e6f7420626567756e21000000000000000000600082015250565b7f7465616368657200000000000000000000000000000000000000000000000000600082015250565b7f496e76616c69642063616e64696461746520746f20566f746521000000000000600082015250565b7f4f6e6c79207374616b6520686f6c646572732063616e20766f74650000000000600082015250565b7f5669657720737461747573206973206e6f77207075626c696300000000000000600082015250565b7f566f7465722068617320616c726561647920566f746564210000000000000000600082015250565b7f416363657373436f6e74726f6c3a206163636f756e7420000000000000000000600082015250565b7f4f6e6c79206368616972706572736f6e2063616e20706572666f726d20726f6c60008201527f6500000000000000000000000000000000000000000000000000000000000000602082015250565b7f206973206d697373696e6720726f6c6520000000000000000000000000000000600082015250565b7f416363657373436f6e74726f6c3a2063616e206f6e6c792072656e6f756e636560008201527f20726f6c657320666f722073656c660000000000000000000000000000000000602082015250565b61330781612d19565b811461331257600080fd5b50565b61331e81612d37565b811461332957600080fd5b50565b61333581612d41565b811461334057600080fd5b50565b61334c81612d8d565b811461335757600080fd5b5056fea2646970667358221220978e54a3d4fe244f4471c1b1b36df1d07fac477e67ea9eb1d94750f3bbc43cc064736f6c63430008040033",
    "linkReferences": {},
    "deployedLinkReferences": {}
}